{
  "address": "0x2228FFDcc7f9C59ba2a8b40c9A5ef60c44aF9633",
  "abi": [
    {
      "inputs": [],
      "stateMutability": "nonpayable",
      "type": "constructor"
    },
    {
      "inputs": [],
      "name": "purpose",
      "outputs": [
        {
          "internalType": "string",
          "name": "",
          "type": "string"
        }
      ],
      "stateMutability": "view",
      "type": "function"
    },
    {
      "inputs": [
        {
          "internalType": "string",
          "name": "newPurpose",
          "type": "string"
        }
      ],
      "name": "setPurpose",
      "outputs": [],
      "stateMutability": "nonpayable",
      "type": "function"
    }
  ],
  "transactionHash": "0xb124172ab4a3361083def61d2547819316cae2dd98048ac6be8b47c13c4eb39c",
  "args": [],
  "solcInputHash": "bde710c76ccbf6ff9094644faafca7ca",
  "bytecode": "0x60c0604052601960808190527f4275696c64696e6720556e73746f707061626c6520417070730000000000000060a090815261003e9160009190610051565b5034801561004b57600080fd5b50610125565b82805461005d906100ea565b90600052602060002090601f01602090048101928261007f57600085556100c5565b82601f1061009857805160ff19168380011785556100c5565b828001600101855582156100c5579182015b828111156100c55782518255916020019190600101906100aa565b506100d19291506100d5565b5090565b5b808211156100d157600081556001016100d6565b600181811c908216806100fe57607f821691505b6020821081141561011f57634e487b7160e01b600052602260045260246000fd5b50919050565b6104aa806101346000396000f3fe608060405234801561001057600080fd5b50600436106100365760003560e01c806370740aab1461003b578063eb68757f14610059575b600080fd5b61004361006e565b6040516100509190610409565b60405180910390f35b61006c6100673660046102d4565b6100fc565b005b6000805461007b90610423565b80601f01602080910402602001604051908101604052809291908181526020018280546100a790610423565b80156100f45780601f106100c9576101008083540402835291602001916100f4565b820191906000526020600020905b8154815290600101906020018083116100d757829003601f168201915b505050505081565b805161010f90600090602084019061023b565b506101cb336040518060400160405280600e81526020016d73657420707572706f736520746f60901b8152506000805461014890610423565b80601f016020809104026020016040519081016040528092919081815260200182805461017490610423565b80156101c15780601f10610196576101008083540402835291602001916101c1565b820191906000526020600020905b8154815290600101906020018083116101a457829003601f168201915b50505050506101ce565b50565b6102158383836040516024016101e6939291906103c9565b60408051601f198184030181529190526020810180516001600160e01b031663fb77226560e01b17905261021a565b505050565b80516a636f6e736f6c652e6c6f67602083016000808483855afa5050505050565b82805461024790610423565b90600052602060002090601f01602090048101928261026957600085556102af565b82601f1061028257805160ff19168380011785556102af565b828001600101855582156102af579182015b828111156102af578251825591602001919060010190610294565b506102bb9291506102bf565b5090565b5b808211156102bb57600081556001016102c0565b6000602082840312156102e5578081fd5b813567ffffffffffffffff808211156102fc578283fd5b818401915084601f83011261030f578283fd5b8135818111156103215761032161045e565b604051601f8201601f19908116603f011681019083821181831017156103495761034961045e565b81604052828152876020848701011115610361578586fd5b826020860160208301379182016020019490945295945050505050565b60008151808452815b818110156103a357602081850181015186830182015201610387565b818111156103b45782602083870101525b50601f01601f19169290920160200192915050565b6001600160a01b03841681526060602082018190526000906103ed9083018561037e565b82810360408401526103ff818561037e565b9695505050505050565b60208152600061041c602083018461037e565b9392505050565b600181811c9082168061043757607f821691505b6020821081141561045857634e487b7160e01b600052602260045260246000fd5b50919050565b634e487b7160e01b600052604160045260246000fdfea2646970667358221220eeee26660e6df853812f4580f50898dd803a1bef40fc440f24f60b0a7c8fada864736f6c63430008040033",
  "devdoc": {
    "kind": "dev",
    "methods": {},
    "version": 1
  },
  "userdoc": {
    "kind": "user",
    "methods": {},
    "version": 1
  },
  "storageLayout": {
    "storage": [
      {
        "astId": 5,
        "contract": "contracts/YourContract.sol:YourContract",
        "label": "purpose",
        "offset": 0,
        "slot": "0",
        "type": "t_string_storage"
      }
    ],
    "types": {
      "t_string_storage": {
        "encoding": "bytes",
        "label": "string",
        "numberOfBytes": "32"
      }
    }
  }
}